:100000000C94A9020C94E1020C94E1020C94E1021C
:100010000C94E1020C94E1020C94E1020C94E102D4
:100020000C94E1020C94E1020C949F2E0C94732F1B
:100030000C9490290C94E1020C94E1020C94E102DE
:100040000C94E1020C94E1020C94E1020C94E102A4
:100050000C94E1020C94332A0C94E1020C94E1021A
:100060000C94E1020C94E1020C94E1020C94E10284
:100070000C94E1020C94E1020C94E1020C94E10274
:100080000C94E1020C94E1020C94E1020C94E10264
:100090000C94E1020C94E1020C94E1020C94E10254
:1000A0000C94E1020C94E1020C94E102009B8B7B26
:1000B00000AB8A7A00AA9A7900A9998900A8988841
:1000C00000A7978700A6968600A5958500A494842E
:1000D000003C4C5C002C4D5D002D3D5E002E3E4EE4
:1000E0000030405000314151002A3A4A0029394934
:1000F0000028384800273747002636460025355661
:10010000002445550034445400AC9C8C00AD9D8DBA
:1001100000AE9E8E00AF9F8F00B0A09000B1A19165
:1001200000324252002B3B4B01A9998901A89888C3
:1001300001A7978701A6968601A5958501A49484B9
:10014000013C4C5C012C4D5D012D3D5E012E3E4E6F
:10015000012F3F4F013040500033435301AB8A7AA7
:1001600001283848012737470126364601253556EC
:100170000124455501AC9C8C01AD9D8D01AE9E8E38
:1001800001AF9F8F0131415101324252013343533C
:1001900000B2A281019B8B7B012B3B4B012A3A4A87
:1001A0000134445401B1A19101B2A28101B3928200
:1001B00001A3938300A3938300B39282167C1E0055
:1001C0001F0020002100220023002400250026001B
:1001D00027002D002E002A004C002B0014001A00CE
:1001E0000800150017001C0018000C001200130076
:1001F0002F00300031004A00215204001600070091
:1002000009000A000B000D000E000F00330034003F
:10021000000028004D00E1001D001B000600190031
:10022000050011001000360037003800E50000001E
:1002300052003500E000E200E300000000002C0066
:1002400000000000E6002152E400500000005100D0
:100250004F00167C3A003B003C003D003E003F0052
:100260004000410042004300440045004C0046006D
:1002700001002078217823782478257826780000DA
:1002800000000000AE00AD00480000004B0001007F
:10029000000029782A780000CD005000510052005B
:1002A0004F0000002778000000004E00E100D10060
:1002B000D200D300CF00CE00D000A800AA00A90031
:1002C0002878010000000000390001000100010051
:1002D000000000002A0000000000010001000100F1
:1002E000AC0000000000AB000001010101010101B0
:1002F00001010202020202020202020303030303DB
:1003000003030304040404040404050505050506A9
:100310000606060607070707070808080809090967
:10032000090A0A0A0B0B0B0C0C0C0D0D0D0E0E0E10
:100330000F0F0F10101111111212131314141515A1
:1003400016161717181819191A1A1B1B1C1D1D1E13
:100350001E1F202021222223242425262627282967
:10036000292A2B2C2D2D2E2F303132323334353695
:100370003738393A3B3C3D3E3F4041424344454695
:100380004748494A4C4D4E4F505153545556585971
:100390005A5B5D5E5F616264656668696B6C6D6F18
:1003A0007072737577787A7B7D7E8082838587888B
:1003B0008A8C8E8F91939596989A9C9EA0A2A3A5C5
:1003C000A7A9ABADAFB1B3B5B7BABCBEC0C2C4C6C6
:1003D000C9CBCDCFD1D4D6D8DBDDDFE2E4E7E9EB82
:1003E000EEF0F3F5F8FAFDFF100344005A00360072
:1003F000350052004700420000000E0344005A003E
:1004000054004500430048000000040309040902A9
:100410003B00020100A0FA090400000103010100F1
:100420000921110100012240000705810308000194
:10043000090401000103000000092111010001224B
:10044000B60007058203200001120100020000002F
:10045000085A44211400020102000105010902A109
:100460000185020901A100050919012908150025C6
:1004700001950875018102050109300931158125B1
:100480007F95027508810609381581257F950175CC
:10049000088106050C0A38021581257F950175082B
:1004A0008106C0C005010980A101850319012AB791
:1004B00000150126B700950175108100C0050C09D3
:1004C00001A101850419012AA002150126A00295A7
:1004D0000175108100C005010906A1018506050707
:1004E00019E029E715002501950875018102050726
:1004F000190029EF1500250195F075018102050805
:100500001901290595057501910295017503910160
:10051000C005010906A101050719E029E715002515
:10052000019508750181029501750881010507197A
:100530000029FF150026FF009506750881000508B3
:100540001901290595057501910295017503910120
:10055000C00011241FBECFEFDAE0DEBFCDBF04B66E
:1005600003FE18C08091BB069091BC06A091BD0609
:10057000B091BE068730904BA740B04B59F4109213
:10058000BB061092BC061092BD061092BE06E0E0BB
:10059000F8E3099512E0A0E0B1E0EAE4F5E602C074
:1005A00005900D92AC3CB107D9F726E0ACECB2E077
:1005B00001C01D92AB3BB207E1F70E9443120C94BD
:1005C00031320C940000CF930E94F620C82F88236C
:1005D00059F00E94092881FF07C02FEF4FEF6FEFFE
:1005E0008EE190E00E9444188C2FCF9108958230C4
:1005F000B8F46530A8F44F3098F450E09FE0699F5C
:10060000400D511D1124FA019BE4899FE00DF11D5D
:100610001124EE0FFF1FE454FE4F8591949108952D
:1006200081E090E008950E94F702089581E0089526
:100630000E941603089581E008950E94160308950C
:100640000E941D03089508950E9423030895A6E0C3
:10065000B0E0EDE2F3E00C94983149835A839E8335
:100660003091D30289819A8131111AC03E8133239E
:1006700099F0222389F00E94C508182F682F8981DC
:100680009A810E94A10869817A81812F0E94B30F0B
:100690002696E3E00C94B4310E94B308182FF3CFF0
:1006A0000E94C50869817A81F1CFFC01262F408123
:1006B000518162817381848195810E94270308950D
:1006C000CF93DF93EC0161E00E945503BE010E94CD
:1006D0001803DF91CF910895CF93DF93EC0160E091
:1006E0000E945503BE010E942403DF91CF9108951B
:1006F00008950E9476070E9478032FEF84E39CE020
:10070000215080409040E1F700C0000008950E9411
:1007100079030E94572A08950E9479030E947B2A38
:1007200008950F931F93CF93DF938C0161E00E9494
:100730005503EC01B8010E942003811106C080E03E
:10074000DF91CF911F910F910895B801CE010E94C2
:10075000ED268823A1F3B801CE010E9483258823CA
:1007600071F3B801CE010E945F26882341F3B801DE
:10077000CE010E942625882311F3F8018581882364
:1007800061F0C330FCE7DF07E9F058F4C115ECE78E
:10079000DE07A9F0C130DC47B9F0C8010E941B0395
:1007A000CFCFCB358CE7D807A9F0CC35ECE7DE0707
:1007B00071F0CA35DC4789F70E94FB0CEECF0E942E
:1007C0008703BDCF0E94030D0E948C03B8CF0E9407
:1007D000F10CE3CF0E94FF0CE0CF0E946C290E9435
:1007E0000A210E941C0481E00E94292208950E948F
:1007F000200480E00E9429220E9471290895089512
:1008000081E008950895CF93DF93D82F0E940004CC
:10081000C82F882319F08D2F0E9402048C2FDF919E
:10082000CF9108950895CF93C82F0E94FF038C2F76
:100830000E940304CF91089580E00E94130408955C
:100840000E94FC270E9413040895CF930E94FC2766
:10085000C82F8091CE028C1779F0C093CE020E94EF
:10086000FC296093CF027093D0028093D1029093C1
:10087000D2028C2F0E941304CF910895ADE0B0E016
:10088000E4E4F4E00C949931488759876A877B87C0
:100890008C879D8791110E94290C1F8286E0FE01A2
:1008A0003896DE01119601900D928A95E1F78D81BF
:1008B00081110DC029813A814B815C816D817E81DE
:1008C0008F810E945C0B2D96E2E00C94B531CE0135
:1008D00001960E9460038111EDCFF5CFFC012481C8
:1008E000213021F4808191810E94F70808956623C8
:1008F00029F00E94C7120E949A1308950E942113A2
:10090000FACFCF93C82F8823B9F08CEF8C0F813AA0
:10091000A8F46C2F80911702909118020E949228DF
:10092000882329F08C2F0E94E90B0E94620C8C2FE7
:100930000E94E10B0E94620CCF91089580E28C0F1F
:10094000883048F4C77081E001C0880FCA95EAF783
:100950000E940C0CEFCFEBE5EC0FE33040F4F0E03D
:10096000E559FD4F808190E00E943428E5CFE8E50D
:10097000EC0FEB3150F4F0E0EE0FFF1FEB5CFD4F9E
:10098000808191810E945928D7CF83E38C0F8331D6
:1009900098F661E08C2F0E947704CECF882381F1F6
:1009A0009CEF980F913A28F40E94E90B0E94620C88
:1009B000089590E2980F983050F4877091E001C04C
:1009C000990F8A95EAF7892F0E94120CEFCF9BE5C9
:1009D000980F933028F490E080E00E943428089526
:1009E00098E5980F9B3128F490E080E00E94592808
:1009F000089593E3980F933118F460E00E94770410
:100A000008951F93CF93DF93182FEB010E94810469
:100A1000209739F4812F0E94CE04DF91CF911F914E
:100A200008958FE99FE00197F1F700C0000021973A
:100A3000EFCF70E060E0893311F460E570E00E9470
:100A400001050895882321F00E940C0C0E94620C7D
:100A50000895882321F00E94120C0E94620C0895D0
:100A6000B0E0A0E0E6E3F5E00C9492316C01D62F03
:100A7000C72FFC011581068102950F700E94020CA0
:100A8000E82E8823E9F0E12E1123D1F08C2F807F0E
:100A9000803451F080E28D0F8830F8F0011104C0ED
:100AA0008C2F807E8032C9F080912C0582FF15C08A
:100AB00082E00E94C50C0E94020C91E0E82EE9261B
:100AC000BC2EB2949FE0B922FBE0FB15B8F1EB2DF0
:100AD000F0E0ED5CFD4C0C948331E12CF1CF0C2F58
:100AE0000F70C07F11F00295007F112399F0002351
:100AF00059F080E28D0F883010F0D11107C0802F9F
:100B00000E940C0C0E94620C8D2F5AC0802F0E94F4
:100B10001C0CF8CF8D2F0E94CE04002379F080E2C8
:100B20008D0F883010F0D11104C0802F0E94120C5C
:100B300003C0802F0E94220C0E94620CEB2DE85013
:100B4000FF0B349720F40E94FC270E941304EE2030
:100B500089F00E94FE0B80FD0DC0F60115820E94F7
:100B6000F80B0E94FF07C6010E943D070E94F80B88
:100B70000E940F08CDB7DEB7E9E00C94AE312C2F00
:100B80002F70F22EC07FC03219F0F29480EFF8225D
:100B9000DD2341F0D130D1F1112309F444C0002309
:100BA000F1F0B2CF80912C0582FD15C0112359F0D0
:100BB000FF2029F08F2D0E940C0C0E94620C80E017
:100BC0000E948104BBCF80E00E94CE04FF2009F484
:100BD000B5CF8F2DABCF112369F0011104C08F2D3C
:100BE0000E942205ABCF013009F0A8CF8F2D0E94C3
:100BF000400CA4CF0111A2CF8F2D0E9429058F2D6B
:100C00000E944C0C8F2D0E94300C98CF112321F0A4
:100C1000063008F093CFE3CF053008F08FCF8F2D4B
:100C20000E9429058BCF0023D1F3D93349F43FEF3C
:100C300087EE93E0315080409040E1F700C0000023
:100C40008D2F0E94CE047ACF8C2F86958695837047
:100C500069F0813009F072CF8D2F9C2F93701111A4
:100C600002C080E090E00E94592868CF8D2F9C2F11
:100C70009370111102C080E090E00E9434285ECF92
:100C8000612F8D2F0E94770459CF8C2F8370A1F58F
:100C9000111154CF4D2F429546954770440F440F84
:100CA0002D2F2F7030E0042E02C0220F331F0A9424
:100CB000E2F790E080E0D4FF09C08FE090E002C04E
:100CC000880F991F4A95E2F780959095C695C6952D
:100CD000C370822B932BC23049F058F4C13019F005
:100CE0000E94CF072BCF0E94C60728CF0E94D807AB
:100CF00025CF0E94C30722CF8695112311F08C2F98
:100D00008170882309F41ACF4D2F4295469547707C
:100D1000440F440F2D2F2F7030E0042E02C0220FFD
:100D2000331F0A94E2F790E080E0D4FF09C08FE01F
:100D300090E002C0880F991F4A95E2F78095909540
:100D4000C695C695C370822B932BC23049F058F4D8
:100D5000C13019F00E943A08F1CE0E943108EECE5F
:100D60000E944308EBCE0E94E707E8CECF70112324
:100D700029F08C2F0E94FF078D2F32CF8D2F0E94DC
:100D800029058C2F0E940F08D9CED23F41F160F483
:100D9000D03FB9F0D13F81F0112309F446C00111D1
:100DA000B3CE8C2F8F711FC0D33F01F1D43FA1F779
:100DB00080912C0582FD24C08C2F8F71112311F39B
:100DC00012C0112341F0053008F0B8CE8C2F8F717E
:100DD0000E942108B3CE063008F0B0CEF7CF8C2F9A
:100DE0008F711111CFCF0E94FF07A8CE112329F0D8
:100DF0008C2F8F710E94F307A1CE0E94EE079ECE2A
:100E0000112349F0CF718C2F0E94FF0763E08C2FD4
:100E10000E94A70C93CE81E00E94C50C023008F41A
:100E20008DCE82E00E94C50C89CE002359F0D933C3
:100E300009F006CFEFEFF7EE23E0E150F04020405D
:100E4000E1F7FCCE8C2F8F719DCF0F931F93CF9323
:100E5000DF93EC01688179818D810E9402098C0108
:100E60000E944C080E94C207B801CE010E943005C2
:100E7000DF91CF911F910F910895CF93DF93EC01F4
:100E80008C81882399F0CE010E949103811111C0B9
:100E90000E94020C882351F08D81882339F08091C3
:100EA0002C0582FF03C082E00E94C50CDF91CF9128
:100EB0000895CE010E942507CE010E946C03F6CF53
:100EC00090E080E00E94342890E080E00E94592861
:100ED0000E94290C0E94620C0E94B6130E949A1371
:100EE00008950E94F10B0E94600708950E94190C5A
:100EF0000E947107089592959F70963091F058F472
:100F0000925F9F70923058F4803F19F030F4883E21
:100F100030F481E008959A5FF4CF843FD1F380E00C
:100F20000895883EB0F3813FD1F7F3CFFC012481CF
:100F3000222339F0808191810E94F7080E947B076B
:100F4000089580E00895A6E0B0E0E9EAF7E00C94A7
:100F500099312696E2E00C94B531A7E0B0E0E3EBDE
:100F6000F7E00C9499312796E2E00C94B53108959E
:100F70000E94B70708950E94B8079093FF028093DC
:100F8000FE02089508950E94BB0708952091FE0275
:100F90003091FF02822B932B0E94BB070895209172
:100FA000FE023091FF02822393230E94BB07089523
:100FB0002091FE023091FF02822793270E94BB07F7
:100FC00008950E94B70708950E94E10708950E94BE
:100FD000E4079093FD028093FC02089590E080E086
:100FE0000E94E707089521E030E0A90102C0440F04
:100FF000551F8A95E2F7CA010E94E707089521E08C
:1010000030E002C0220F331F8A95E2F78091FC0284
:101010009091FD02822B932B0E94E707089521E017
:1010200030E002C0220F331F8A95E2F720953095F9
:101030008091FC029091FD02822393230E94E70796
:10104000089521E030E002C0220F331F8A95E2F7B5
:101050008091FC029091FD02822793270E94E7076E
:1010600008952091FC023091FD02822B932B0E9467
:10107000E70708952091FC023091FD02822393231B
:101080000E94E70708952091FC023091FD0282271B
:1010900093270E94E70708950895262F277091E06F
:1010A00001C0990F2A95EAF723E0769567952A956E
:1010B000E1F7660F771F660F771FFA01E60FF71F3C
:1010C00050E040E0682F70E08191DF0111979B01B3
:1010D000042E02C0369527950A94E2F721702195D7
:1010E0002827292328272C934F5F5F4F4430510531
:1010F00059F70895A82FA77023E0969587952A950C
:10110000E1F7880F991F880F991FFB01E80FF91F5E
:1011100050E040E080E0219130E00A2E02C0369598
:1011200027950A94E2F721703327042E01C0220F7D
:101130000A94EAF7822B4F5F5F4F4430510559F70D
:101140000895262F953070F48F3060F4682F70E08A
:101150008FE0989F600D711D112444ED52E0822FA5
:101160000E944D080895292F953068F48F3058F467
:1011700090E064ED72E03FE0239F800D911D11240B
:101180000E947A08089580E00895B0E0A0E0EBECBA
:10119000F8E00C9492317C010091FC021091FD0268
:1011A0008091FE029091FF02082B192BCFE0D0E036
:1011B000CC24C394D12CBC2EC6010C2E02C0880FA7
:1011C000991F0A94E2F780239123892B49F42197F0
:1011D00090F7B12C8B2DCDB7DEB7E9E00C94AE3192
:1011E000B7018C2F0E94BF0F019789F3F3CFCF93E4
:1011F000DF93EC010E94C508BE010E94BF0FDF9182
:10120000CF9108951F93CF93DF93EB019091D30279
:10121000992339F0CB010E94F708DF91CF911F91FC
:101220000895882369F0CB010E94C508182F682F04
:10123000CE010E94A108BE01812F0E94BF0FEDCFF9
:10124000CB010E94B308182FF6CF1F93CF93DF93E3
:10125000C091000317E0809101038C1304C0DF915B
:10126000CF911F910895D0E01C9FF0011D9FF00DBC
:101270001124EE5FFC4F20813181428153816481D2
:10128000758186810E94AD072196C770E4CF2091B9
:101290003A0330913B0340913C0350913D036091F0
:1012A0003E0370913F03809140030E94AD07089573
:1012B000CF93DF9380914003807F09F04DC08091F0
:1012C0003F03882309F448C0E091000350910103D3
:1012D000C0913B03D0913A0360913C0370913D0370
:1012E00047E05E17C9F18E2F90E0E49FF0011124D2
:1012F000EE5FFC4F2481222391F1489FF001499F2A
:10130000F00D1124DF01AE5FBC4F11962C911197A7
:101310002C1325C02C912D1322C015962C911597B6
:1013200021111DC012962D913C91261B370B283C94
:101330003105A8F4809140038F7080618093400351
:10134000E85FFC4F80818F70806180838AE393E047
:101350000E943D070E942509DF91CF910895FC016D
:101360003196E770BECF482F209100039091010382
:1013700057E0291302C080E0089530E0529FF00149
:10138000539FF00D1124EE5FFC4F8181681306C05E
:101390008081481303C085818111EECF2F5F3F4FBD
:1013A0002770E7CFA4E1B0E0E8EDF9E00C948F31CD
:1013B0008C0186E0F801DE011F9601900D928A955E
:1013C000E1F7F8018481E5809AE3A92E93E0B92E34
:1013D00090913E0391111FC08823D1F0EE20A9F017
:1013E000C8010E949607F82E882379F087E0F8015B
:1013F000D50101900D928A95E1F7C5010E946E0416
:101400000E9458090E9447095FC0C8010E943D0719
:10141000FF24F39459C0C080D18082809380F090E3
:101420003F0320913C0330913D03A401421B530B29
:10143000FF2009F4F9C0483C510508F0A7C08823F3
:1014400009F442C090913B0380914003282F207FF4
:1014500009F05CC09D1116C090913A03C91212C0E8
:10146000E1104EC08F708061809340030E94470955
:101470008AE393E00E943D0780914003F801868350
:10148000F12C22C0E1103CC06D2D8C2D0E94B309BF
:101490006D2D8C2D0E94B309E82E8111F1CFCF86DE
:1014A000D88A8F8598890E94F708292F22952F7056
:1014B000243078F49F702230A8F09923B9F0F80115
:1014C0009681907F99F4FE2C8F2D6496ECE00C941D
:1014D000AB312A5F2F70223068F0C8010E943D07AF
:1014E000EF2CF1CF992311F0882369F3805E8830C7
:1014F00050F3F3CF803F38F3815F833070F7E3CF51
:1015000080914003816080934003BACF9D1113C046
:1015100090913A03C9120FC0E1100DC08683C80133
:101520000E943D0787E0F801AAE3B3E001900D9225
:101530008A95E1F767CFC8010E949607882309F4CE
:1015400064CFEE2009F461CF80914003803288F0AF
:1015500020913A0330913B03398728879B868A86FE
:1015600090913E039C871D868E87CE0108960E942F
:101570003D0787E0F801AAE3B3E001900D928A9558
:10158000E1F70E9458090E94470942CF9091400319
:10159000292F207FA1F4682D9A8A898AA6017A8949
:1015A0009E2D0E94A3078AE393E00E943D0787E0F7
:1015B000F50111928A95E9F70E94470961CF8823C6
:1015C00009F482CF80913B038D1110C080913A03C2
:1015D000C8120CC0E1100AC09683C8010E943D07E2
:1015E00087E0F50111928A95E9F76ECFC8010E9454
:1015F0009607882309F409CFEE2009F406CF8091DD
:101600004003803208F4B5CF20913A0330913B0378
:101610003A8329839C828B8290913E039D831E8214
:101620008F83CE010196A3CF483C5105B8F588239E
:1016300009F4EECEFE2CEE2009F4E7CE80913B03B8
:101640008D111EC080913A03C8121AC080914003C8
:1016500080FD0DC0982F907F51F08683903F09F454
:101660005ECF982F907F905F8F70892B57CF87E048
:10167000F801AAE3B3E001900D928A95E1F724CF37
:10168000C8010E949607811174CF80914003816048
:1016900080934003C8010E943D0716CF682D9A8AA7
:1016A000898AA6017A899E2D0E94A30787E0F50109
:1016B00011928A95E9F7A6CEAEE0B0E0E2E6FBE053
:1016C0000C949831288739874A875B876C877D8798
:1016D0008E87CE0108960E94D2098823B1F06C85CE
:1016E000662341F0288539854A855B857D858E8511
:1016F0000E94AD0717E080910003909101038913C8
:101700003DC02E96E3E00C94B43187E0FE0138969C
:10171000DE01119601900D928A95E1F78C85882360
:1017200049F32091010330E0C901019687709927A0
:10173000409100034817190699F097E0929FD00155
:10174000939FB00D1124AE5FBC4FFE013196019006
:101750000D929A95E1F7809301030E942509CACF63
:101760000E947607109201031092000387E0EAE3DB
:10177000F3E0DF011D928A95E9F7BCCF819FC0019C
:1017800011248E5F9C4F0E94D209882309F4B9CF9F
:10179000E09100031E9FF0011124EE5FFC4F2081B9
:1017A0003181428153816481758186810E94AD07B8
:1017B0008091000390E00196877099278093000341
:1017C0009ACF682F80911702909118020E941229D7
:1017D0000895682F80911702909118020E94202985
:1017E000089580911702909118020E942E29089561
:1017F0008091610386958695869508958091610311
:101800008770089590916103977081E009F480E0FA
:10181000089580918503089590918503892B809385
:10182000850308958095909185039823909385036F
:10183000089510928503089590918403892B8093D5
:101840008403089580959091840398239093840352
:10185000089510928403089508950E942C0C089511
:1018600090916203292F282331F08095892380935A
:1018700062030E942D0C089508950E943C0C089567
:1018800090916303292F2823281729F0982B9093F0
:1018900063030E943D0C089590916303292F282330
:1018A00031F080958923809363030E943D0C089555
:1018B00080916303882329F01092630380E00E94E3
:1018C0003D0C0895CF93DF93E0911702F091180239
:1018D000809185038083E0911702F0911802808146
:1018E00090918403892B808390916303992381F0E5
:1018F000E0911702F09118028081892B80838091FA
:101900001702909118020E947E2881110E94580CA3
:10191000C0911702D091180240E250E061E473E0F8
:10192000CE010E94C931892B59F080E2FE01A1E469
:10193000B3E001900D928A95E1F7CE010E940C2848
:10194000DF91CF91089508950E94A30C089590917E
:101950002C0592FF11C098E0899F90011124622B01
:10196000609361030E94FF078091610386958695CD
:1019700086950E94A40C08950E94FF070895109276
:10198000610380E00E94A40C08959091610380950A
:10199000892380936103282F277069F4891759F0F0
:1019A00090912C0592FF07C08695869586950E949A
:1019B0000F080E94BF0C089590912C0592FB2227DE
:1019C00020F9281769F080FB92F990932C058091FB
:1019D0002B0590912C050E94240D82E00E94C50CDD
:1019E000089580912C0582FB882780F991E0892752
:1019F0000E94DC0C089581E00E94DC0C089580E0D8
:101A00000E94DC0C08956FEF7FEF90E080E00E9471
:101A10002B32089590E080E00E94F73121E0863E6D
:101A20009E4F09F020E0822F089582E090E00E940E
:101A3000EF31089583E090E00E94EF31089584E053
:101A400090E00E94F7310895BC0184E090E00E948C
:101A50002B320895AB01BC018FE090E00E941F3251
:101A60000895AB01BC0183E190E00E941F3208950C
:101A700060E070E0CB010E94310D089560E070E0FD
:101A8000CB010E942A0D0E94380D0895A8E0B0E015
:101A9000ECE4FDE00C94993166EE7EEF90E080E09E
:101AA0000E942B3260E082E090E00E940D3260E004
:101AB00083E090E00E940D321092FF021092FE022D
:101AC00060E074E184E090E00E942B3260E086E008
:101AD00090E00E940D326FEF87E090E00E940D329F
:101AE00040E050E0BA0188E090E00E941F3260E0E0
:101AF00084E290E00E940D3260E087E190E00E9475
:101B00000D3260E08CE090E00E940D3260E08DE0EC
:101B100090E00E940D3219821A821B821C821D8263
:101B20001E821F82188648E050E068E170E0CE0116
:101B300001960E94FD3140E050E0BA0180E290E061
:101B40000E941F320E943E0D2896E2E00C94B531AF
:101B50000E94460D0895682F8EE090E00E940D329D
:101B60000895A6E0B0E0E7EBFDE00C9497310E9409
:101B7000F0298C018091860390918703801791074B
:101B800081F019821A820E94F029682F49815A81B6
:101B9000792F80E090E00E943E0410938703009329
:101BA00086032696E4E00C94B3310E94FC296093EE
:101BB000960370939703809398039093990360938F
:101BC00092037093930380939403909395030895E5
:101BD000089508950E94E90D089508950E94ED0D5D
:101BE000089581E0089589EA90E10E94F2270E9419
:101BF000E80D0E94EA0D08950E94F10D08950E94DB
:101C0000FC0D0895089508950E94020E0E94030E8F
:101C100008950E94C5100E9412040E94C2210895D6
:101C20000E94E7290E94A4110E94090E0E94EE0D55
:101C30000895A6E0B0E0EFE1FEE00C948D310E9443
:101C4000F10D81110CC00E94B10D0E940A210E9469
:101C5000D8130E9425042696EEE00C94A9310E9428
:101C6000BA1128E8822E23E0922E640110E0F601DA
:101C7000E190F1906F01812F0E94EB101F5F1530F2
:101C800009F44EC0E816F90691F380919A0381FD9C
:101C90000E94F4100E94FF0D682E10E0812F0E9418
:101CA000EB107C01F401A190B1904F018A159B05C6
:101CB00089F100E0CC24C394D12CAE24BF24C5010B
:101CC0008C219D21892BE9F077247394C7018C2105
:101CD0009D21892B09F4712C662071F009831A83E8
:101CE0000E94F029682F8B839C8349815A81792F28
:101CF00081E0972D0E943E04472D602F812F0E9486
:101D0000A11D0F5FCC0CDD1C0F30C9F6F40132971A
:101D1000F182E0821F5F153009F60E94D50D95CF44
:101D2000E816F90609F0B1CF8ECF1F93CF93DF935A
:101D30000E94C40FEC01C11580E5D807F0F5C1156C
:101D400080E4D80708F09CC0C03ED10520F5CD3C0A
:101D5000D10508F082C0C83AD10578F4C53AD1055A
:101D600008F073C0C130D10519F1209709F1C430D2
:101D7000D105F0F4D0E0C0E01BC0C33CD105D0F7E2
:101D8000C85AD0E0CC0FDD1FC259DD4F0990D88171
:101D9000C02DD4640DC0C11580E2D80708F0D1C0B1
:101DA000C11581E0D80708F05AC0C83ED10510F728
:101DB000CE01DF91CF911F910895C03682E5D807FB
:101DC00018F5C03482E5D80708F06BC0C03282E550
:101DD000D80708F05FC0C11582E5D80708F497C09E
:101DE0002C2F2695269580E2289F900111248C2F78
:101DF0008370C1E0D0E002C0CC0FDD1F8A95E2F70E
:101E0000C22BD32BDD68D4CFC03A82E5D80760F46B
:101E1000C03882E5D80708F459C0CF71D0E0DC2F74
:101E2000CC27C46FD06AC4CFC03C82E5D80708F481
:101E300062C0C03E82E5D80708F09CCFDC2FCC27DB
:101E4000CC27DF71C06FD06AB3CFC55AD0E0CC5574
:101E5000DD4FC881D0E0D064ABCFD065A9CF8D2F46
:101E60000E946610182FCE0199270E94C40FC12F1F
:101E7000D0E0DC2FCC27CC27DF71C82BD92B98CF13
:101E8000CE0199270E94C40FCC27DF70C82BD92B15
:101E9000D06A8ECFCF71D0E0DC2FCC27C16FD06A53
:101EA00087CF2C2F26952695277080E2289F9001BA
:101EB00011248C2F8370C1E0D0E002C0CC0FDD1F55
:101EC0008A95E2F7C22BD32BDC6872CF2C2F269594
:101ED0002695277080E2289F900111248C2F837013
:101EE000C1E0D0E002C0CC0FDD1F8A95E2F7C22B23
:101EF000D32BDA685DCF8C2F8F710E946610C82FAC
:101F0000D0E0DC2FCC27CC27DF71D06251CF8C2FD3
:101F10008F710E94661055E0D695C7955A95E1F7E6
:101F2000CF70D0E0DC2FCC27282F30E084FF05C015
:101F300044E0220F331F4A95E1F7C22BD32BD0691F
:101F400037CF8D2F8F710E946610182FCE019927E1
:101F50000E94C40FC12FD0E0DC2FCC27CC27DF712B
:101F6000C82BD92BD2CF462F753030F46F3020F4E8
:101F7000672F0E941303089590E080E008950E9467
:101F8000B30F0E94950E089582389105B9F1B0F40F
:101F90008133910509F47DC048F48932910509F433
:101FA0006DC08A32910509F47BC00895853391058F
:101FB00009F45FC08933910509F10895833E9105C5
:101FC000D9F138F4803E910529F1823E910579F1ED
:101FD0000895863E9105D9F1873E910509F43EC0EA
:101FE000843E910541F520912C0521FF24C080916C
:101FF0002B0584FD19C087EE90E0089520912B05F4
:10200000237009F05AC020912C0523FF14C089E2E7
:1020100090E0089520912B0520FD38C030912C05CB
:1020200030FF09C024FF43C090E080E00895209174
:102030002B0522FDF7CF089520912B0522FD3AC0F4
:1020400030912C0530FD39C024FFF5CFEDCF209124
:102050002B0523FFF0CF24FDE7CFCDCF20912B051B
:1020600023FD2EC030912C0531FFEECF84EE90E0A1
:10207000089520912B0525FFDECFC9CF20912B0598
:1020800025FD21C020912C0523FFD5CF89E390E0C9
:10209000D2CF20912B0526FFCECF8AE290E0089583
:1020A00020912B0526FFC7CF81E390E0089583EEB2
:1020B00090E0089582EE90E0089580EE90E008951B
:1020C00086EE90E0089585E390E0089590912B05C9
:1020D00092FF06C0282F28712830F9F4877F84608A
:1020E00093FF06C0282F28712831F1F4877E846180
:1020F00020912C0520FF06C0382F38713830D9F4D4
:10210000877F816021FF06C0282F28712831D1F4F4
:10211000877E816194FD877E0895282F2471243065
:10212000F9F68B7F8860DCCF282F2471243101F7EA
:102130008B7E8861DDCF382F3171313019F78E7F7A
:102140008860E0CF282F2171213121F78E7E8861B0
:10215000E1CF80E008950E94030D08950E94BA1116
:102160008FEB9DE50197F1F700C000000E94BA11C6
:1021700080E00E94EB1080FF04C00E94AB100E9420
:10218000572A08950E94AE1008950E940A0D8111E9
:1021900002C00E94A80D0E94150D80939A030E9410
:1021A0001F0D90932C0580932B050E94C2100E9456
:1021B0001A0D90E00E94C3078091FC029091FD02ED
:1021C0000E94E407089508950E94E3100895089579
:1021D0000E94E7100895E82FF0E0EE0FFF1FE95C82
:1021E000FA4F808191810895089580EA8A95F1F7E8
:1021F000089500C008950E94F5100895F894E82FFE
:10220000E295EF70F0E031A1282F2F7081E090E08F
:1022100001C0880F2A95EAF7982F9095932391A3F0
:1022200092A1892B82A3789408950F931F93CF9343
:10223000DF93C6EBD2E089918F3F11F00E94FE1030
:1022400082E0CB3BD807B9F7C7EAD2E006EB12E051
:1022500089918F3F11F00E94FE100C171D07C1F7E6
:10226000DF91CF911F910F910895AF92BF92DF92AE
:10227000EF92FF920F931F93CF93DF938C01D62E93
:10228000C62FD0E0CE018A549D4F7C01FC012081F5
:102290002F3F09F44CC0F894E22FE295EF70F0E084
:1022A00031A12F7081E090E001C0880F2A95EAF7F4
:1022B000932F982B91A392A18095892382A3789440
:1022C0000E94F910E7EAF2E041E050E0B12CA12CC5
:1022D00021912F3FB1F1A22FA295AF70B0E090965F
:1022E0008C9190E02F7002C0959587952A95E2F722
:1022F00080FD27C0CA01A82AB92A440F551F82E0D1
:10230000E63BF80729F7F70180818F3F11F00E9423
:10231000FE1061E0A114B10409F460E08D2D0E946B
:10232000FB10CC0FDD1FC00FD11FB982A882DF9137
:10233000CF911F910F91FF90EF90DF90BF90AF90E2
:10234000089590E080E0D7CF0E9415118AE0E7E37E
:10235000F5E0DF01982F1D929A95E9F7EDE2F5E09F
:10236000DF011D928A95E9F785E00E94F5110E9430
:10237000E4100895AAE0B0E0E0ECF1E10C949631AD
:102380008E010F5F1F4F8AE0F80111928A95E9F7DD
:10239000F12C6F2DC8010E943511F394F5E0FF1266
:1023A000F8CF4AE050E0B8018DE295E00E94C931D3
:1023B00021E0009709F420E0892B41F08AE0F80140
:1023C000ADE2B5E001900D928A95E1F745E067E353
:1023D00075E08DE295E00E94F611182F0E94E8103A
:1023E000812F2A96E5E00C94B2310895CF92DF92C6
:1023F000EF92FF921F93CF93DF936C017B01C42F69
:10240000222349F081E080939D030E94F02990935C
:102410009C0380939B0310919D0311110AC010E04F
:10242000812FDF91CF911F91FF90EF90DF90CF90A0
:10243000089580919B0390919C030E94082A039722
:1024400070F3D0E0CC0FDD1FAE01B601C7010E94D2
:10245000C931892B41F0AE01B601C7010E94D631C6
:1024600010929D03DDCF10E0FBCF0E94F02B0E9465
:10247000100E0E94FD2B08950E94022C0E94190E3E
:102480000E941C2C08950E9489290E94D62B0E942C
:10249000F30D0E9435120E943C120E94040EFBCFE5
:1024A0008091A40380FF0DC060911E0270E0660F52
:1024B000771F6038710570F56115710569F1862F18
:1024C000089581FF07C060911E0284E0689FB001FB
:1024D0001124EFCF60911E0282FD0AC08091A303F8
:1024E0008823A9F020911D0260911E02821710F02E
:1024F00088E0ECCF869FC001112433E0880F991F3C
:102500003A95E1F7622F70E00E942E31D2CF68E059
:1025100070E0D5CF8FE7089581E008958091A403FE
:1025200080FF0CC060911A0270E0759567957595F3
:1025300067956115710549F1862F089581FF06C0E1
:1025400060911A0270E075956795F3CF60911A0259
:1025500082FD0BC09091A2039923A1F06091190212
:1025600080911A02961738F0682F70E06038710574
:1025700000F38FE70895899FC001112470E00E9445
:102580002E31F4CF61E070E0D7CF81E008958D3C2B
:1025900031F40E94501281958093A80308958E3CD7
:1025A00019F40E945012F8CF8F3C31F40E9450125F
:1025B00081958093A7030895803D19F40E945012DD
:1025C000F8CF893D29F40E948E128093A9030895C3
:1025D0008A3D21F40E948E128195F7CF8B3D31F414
:1025E0000E948E1281958093AA0308958C3D19F460
:1025F0000E948E12F8CF9FE2980F983070F4815DA0
:10260000990B21E030E001C0220F8A95EAF7809112
:10261000A603822B8093A60308958D3D31F480910B
:10262000A40381608093A40308958E3D21F48091DA
:10263000A4038260F7CF8F3DB9F78091A403846033
:10264000F1CF4091A7038D3C59F48091A80387FFF7
:102650000DC01092A80341110BC01092A30308C033
:102660008E3C81F48091A80318169CF3442381F0DA
:102670008091A9039091AA03892B09F05AC0109266
:10268000A20308958F3C49F447FFF0CF1092A703AF
:102690008091A8038111ECCFE0CF803D19F414168E
:1026A000ACF3E4CF9091A903893D29F41916F4F60F
:1026B0001092A903DBCF8A3D19F497FFD7CFF8CF4B
:1026C0009091AA038B3D29F497FFD0CF1092AA03D3
:1026D000CDCF8C3D19F41916CCF3C8CF9FE2980FDB
:1026E000983090F4815D990B21E030E0B90102C08F
:1026F000660F771F8A95E2F7CB0180959091A6032C
:1027000089238093A603B2CF8D3D31F48091A40339
:102710008E7F8093A403AACF8E3D21F48091A403E1
:102720008D7FF7CF8F3D09F0A1CF8091A4038B7FE0
:10273000F0CF08950E94F0299C019091A703809109
:10274000A803982B21F03093A1032093A00390912C
:10275000A9038091AA03982B21F030939F03209323
:102760009E0385EA93E00E942628089586E0E5EA24
:10277000F3E0DF011D928A95E9F71092A30310920E
:10278000A2031092A4030895FC01828181110EC05E
:10279000838181110BC08481811108C091E0858102
:1027A000811101C090E0892F8170089581E0FCCFF4
:1027B000A6E0B0E0EEEDF3E10C94983186E0E5EAB6
:1027C000F3E0DE01119601900D928A95E1F71092E7
:1027D000A7031092A8031092A9031092AA038B8159
:1027E0009C81892B89F08091A0039091A1030E9484
:1027F000082AAC019091A3039923C9F180911F028B
:102800008417150608F440C08D819E81892B91F0B4
:1028100080919E0390919F030E94082AAC019091A1
:10282000A203992309F471C080911B028417150635
:1028300008F479C0BE016F5F7F4F85EA93E00E9484
:102840004029811105C085EA93E00E94C4138111DB
:102850000E949A1386E0FE013196A5EAB3E001904A
:102860000D928A95E1F72696E3E00C94B43120911D
:1028700020028AE0289F900111242417350720F6B2
:102880009F5F9093A30302C09F3FD1F71B81112349
:1028900059F00E9450129FEF11160CF491E0899F9D
:1028A000802D11248093A7031C81112359F00E94CD
:1028B00050129FEF11160CF491E0899F802D112486
:1028C0008093A8033091A703332309F49DCF20916F
:1028D000A803222309F498CF45EB3403C001112447
:1028E000992359F09093A70345EB240390011124F9
:1028F000332339F03093A80387CF81E08093A70377
:10290000F3CF81E08093A8037FCF20911C028AE05F
:10291000289F900111242417350708F08BCF9F5F63
:102920009093A20302C09F3FD1F71D81112359F05C
:102930000E948E129FEF11160CF491E0899F802D5A
:1029400011248093A9031E81112359F00E948E1235
:102950009FEF11160CF491E0899F802D1124809334
:10296000AA033091A903332309F464CF2091AA0369
:10297000222309F45FCF45EB3403C00111249923CE
:1029800059F09093A90345EB2403900111243323BC
:1029900039F03093AA034ECF81E08093A903F3CF9F
:1029A00081E08093AA0346CFEF92FF920F931F938B
:1029B000CF93DF93EB01E82FD1110EC0442321F018
:1029C000F0E0E851FD4FE4916E2F7E2F8E2FCDB7B2
:1029D000DEB7E6E00C94B1310D2F10E0282F30E087
:1029E000442329F028513D4FF901249130E0F6E0CD
:1029F000CF9FC0011124EFEFF0E0BF010E941A3118
:102A0000AB018C2F90E0880F991FA5E5A49FB00122
:102A1000A59F700D1124861B970B982F990F980F67
:102A2000BF01601B710B629FD001639FB00D729F4D
:102A3000B00D11248B2F9D9FB0011124672F772794
:102A4000EF01C61BD70BBE01629FE001639FD00D53
:102A5000729FD00D11247F01E91AF108E09EB001A8
:102A6000E19E700DF09E700D1124672F7727E61BF5
:102A7000F70BE29F8001E39F100DF29F100D1124D0
:102A8000E12F722F4230510599F048F4411551055C
:102A900069F04130510581F0EB2F8D2F07C0443094
:102AA000510569F080F046305105B1F76E2F8FCF98
:102AB000E22F7B2F812FFACFE22F7D2FF7CFEB2F45
:102AC000822F712FF3CF7B2F822FED2FEFCF41E09D
:102AD0000E94D414089530E020E0869F212D969F17
:102AE000200D311D1124C9010895AC0182309105DA
:102AF00008F408959FEF413E8EE1580740F49A0193
:102B000095E0369527959A95E1F798E0920F61E068
:102B1000E62FE90FFF27FF1F9F0135952795822F8D
:102B2000229FF001239FF00DF00D11244E175F0737
:102B300038F49FEF920F961758F78FEF860F08958E
:102B40002F3FE9F361E0620FF6CF409127025091E9
:102B5000280225E038E0429FC001439F900D529F1C
:102B6000900D1124875E994C909328028093270240
:102B7000890F0895E82F86FDE0952E2F2F7086FD92
:102B80002F5FE695E695E695E670F0E0E554FD4F9B
:102B90009181929F902D212D112492959F702295C5
:102BA000207F922B2081920F87FD919580E8890FDD
:102BB0000895E42FF0E0EE0FFF1FE55BFE4F40812C
:102BC00034EE439F412D1124E82FF0E050E0445EA5
:102BD0005F4FDA01A21BB1099D01B7FF03C0319518
:102BE0002195310993E0220F331F9A95E1F7AF0148
:102BF000421B530B9A0157FD20E0582F259F212D92
:102C00001124822F0895622F0895E42FF0E0EE0F33
:102C1000FF1FE55BFE4F6081621B0895E42FF0E02B
:102C2000EE0FFF1FE45BFE4F6081621B0895322FA1
:102C300050E0FA01EE0FFF1FE45BFE4F90819052CF
:102C400097FD9195440F551FFA01E55BFE4F2081DA
:102C5000231B330B290F311D97FD3A95620F089501
:102C6000EF920F93972F23E0029FB00111247595E7
:102C700067956E0D792F0F91EF9008950F93CF9375
:102C8000DF93D72FC82F47FD419588E390E0841B41
:102C9000910947FD9395889FB001899F700D700D34
:102CA0001124229FC001239F900D900D1124860FA7
:102CB000971F0E947515982F990F890F682F600F25
:102CC0007D2F8C2FDF91CF910F9108950F931F933C
:102CD000522F10E0F801EE0FFF1FE45BFE4FA081C2
:102CE000A052BB0B9D015203F001539FF00D112424
:102CF000000F111FD801A55BBE4F0C910057110B9F
:102D000040039001419F300D11242E0F3F1F37FFCC
:102D100002C021583F4F220F232F221F330B620F77
:102D20001F910F9108950F931F93522F10E0F801F8
:102D3000EE0FFF1FE45BFE4FA081A052BB0B9D0175
:102D40005203F001539FF00D1124000F111FD80101
:102D5000A55BBE4F0C910057110B40039001419FA2
:102D6000300D11242E0F3F1F37FF02C0215C3F4F53
:102D700096E0359527959A95E1F7620F1F910F918F
:102D800008950F931F9310E0F801EE0FFF1FE55B0E
:102D9000FE4F9081905797FD9195000F111FF801FC
:102DA000E45BFE4F00810052110B2003F001219FD4
:102DB000F00D112408E310E0091B110997FD13958C
:102DC00040039001419F300D1124E20FF31F9F013A
:102DD000220F331F2E0F3F1F37FF02C021583F4FD6
:102DE000220F232F221F330B620F1F910F91089583
:102DF0000F931F93CF93DF938B01D82FC42F822F74
:102E00000E94BA15EC2FF0E0EE0FFF1FE55BFE4FBE
:102E100090819058890F87FD8195880F682F2CE04D
:102E2000629F612D1124600F712F8D2FDF91CF9143
:102E30001F910F910895E42FF0E0EE0FFF1FE55B67
:102E4000FE4F9081921B97FD9195292F38E1239F8A
:102E5000212D1124620F08952091450530E1230FA3
:102E600008F42FEF60E1822F90E00E946B15BC0107
:102E700088EB9BE00E941A3190E080E00895409535
:102E8000282F429F412D1124842F089522E8241BCE
:102E900008F420E0620F0895EF92FF920F939701DC
:102EA000201B31092F3F310519F010F02FEF30E0D2
:102EB0002095382F320F08F43FEF832F0F91FF90AA
:102EC000EF9008959091A604892B8093A60408950D
:102ED000FC019B01009729F480E077FF2BC080E87C
:102EE0000895AC0197FF04C044275527481B590B90
:102EF000B901640F751F37FD10C0241B350BC901C4
:102F0000A5E0880F991FAA95E1F70E942E3180E273
:102F1000861BF7FF0FC081950895CB0165E0880FF0
:102F2000991F6A95E1F7BA01621B730B0E942E315B
:102F300080E6EECF08950F931F93CF93DF93D62FA4
:102F4000C72F182FC901212F201B022FBA010E9461
:102F50006817982F990F990F891B800F282F219F91
:102F6000212D1124822F6D2F7C2FDF91CF911F9166
:102F70000F910895EF920F931F93CF93DF93D62F66
:102F8000C72F182FC9010E19010FBA010E94681727
:102F9000081B202F219F212D1124822F6D2F7C2F84
:102FA000DF91CF911F910F91EF9008950F93CF93E1
:102FB000DF93D72FC82FC901BA010E946817682F65
:102FC000600F7D2F8C2FDF91CF910F910895EF929D
:102FD0000F93CF93DF93D72FC82FC9010E19BA01D2
:102FE0000E946817602F681B7D2F8C2FDF91CF9177
:102FF0000F91EF90089548E050E068E170E081E4BF
:1030000095E00E94FD311092A60408950E94671574
:103010000895E1E4F5E081E28083809132029091AD
:103020003302A091340281839283A3838FE7848348
:103030008FEF85830E94FB17089580E008950F931A
:103040001F93CF93DF93C82FD62F8A010E941D189C
:103050009FE0C99FB001112460507F4F6D0F711D1B
:10306000FB0190819F3F29F0F801E80FF11D90834B
:103070008F5FDF91CF911F910F910895E091C90269
:10308000F091CA0209950895E091C502F091C60237
:1030900009950895B0E0A0E0E0E5F8E10C948C31EA
:1030A0005C014B01FC01C081CC0FCC0F14E01C0F64
:1030B000F12E153410F034E4F32E60914505669539
:1030C0008091490590914A050E946B15582ED0E0D9
:1030D000CF1548F081E0143408F080E0CDB7DEB7BA
:1030E000EFE00C94A831FE01ED52FE4F8081F50116
:1030F00091818923C9F1CE01880F991F80509F4F7C
:10310000FC01E55BFF4F2081422F4057550B6A01C0
:10311000845B9F4FFC018081282F2052330B3901A3
:10312000449F9001459F300D300D1124669CC001D5
:10313000679C900D900D1124820F931F0E947515AE
:10314000082F609142057091430580914405E52C5C
:103150009301A601F40109950E940618462F282F15
:10316000672FCE010E9444182196B2CF6AEB77E117
:103170000E944A18089560E376E10E944A18089573
:1031800067EE77E10E944A180895B0E0A0E0EBEC0A
:10319000F8E10C9491316C017B01FC01C081CC0FF2
:1031A000CC0F14E01C0FB12E153410F034E4B32E04
:1031B0006091450566958091490590914A050E9468
:1031C0006B15A82ED0E0CB1548F081E0143408F040
:1031D00080E0CDB7DEB7EAE00C94AD31FE01ED52F0
:1031E000FE4F8081F6019181892311F1CE01880F74
:1031F000991F80509F4FFC01E45BFF4F20812052BC
:10320000330B855B9F4FFC0140814057550B60910C
:10321000420570914305809144050A2DF7010995F7
:103220000E940618462F282F672FCE010E944418AF
:103230002196C9CF6BE977E10E94C51808956EE326
:1032400076E10E94C518089566ED77E10E94C518E1
:103250000895B0E0A0E0EFE2F9E10C9492317C0136
:103260008B01FC01C081CC0FCC0F94E0D92EDC0E79
:10327000CD2CF4E4FD1510F484E4C82E60914505CE
:103280006695669521E0620F08F46FEF809149051D
:1032900090914A050E946B15B82ED0E0CC1550F0E5
:1032A00081E093E49D1508F480E0CDB7DEB7E9E056
:1032B0000C94AE31FE01ED52FE4F8081F7019181F9
:1032C000892391F0609142057091430580914405F6
:1032D0002B2D4C2FF80109950E940618462F282FF8
:1032E000672FCE010E9444182196D8CF69ED75E171
:1032F0000E942919089563E076E10E942919089532
:1033000065E076E10E94291908956EE076E10E9459
:103310002919089567E176E10E942919089568EF57
:1033200076E10E94291908956BE177E10E9429193D
:103330000895B0E0A0E0EFE9F9E10C948E315C0172
:103340006B01FC01C081CC0FCC0F14E01C0F912E3F
:10335000153410F034E4932E60914505669566951A
:103360008091490590914A050E946B15F82E80E4E2
:103370008F0D0E94BA1590E8892E880E8F2D0E941D
:10338000BA1520E8722E780ED0E0C91548F081E019
:10339000143408F080E0CDB7DEB7EDE00C94AA312C
:1033A000FE01ED52FE4F8081F50191818923A1F04C
:1033B000609142057091430580914405EF2C0C2FDC
:1033C000272D482DF60109950E940618462F282F13
:1033D000672FCE010E9444182196D7CF66E676E18A
:1033E0000E949919089563E976E10E949919089558
:1033F00061EC76E10E9499190895B0E0A0E0E3E065
:10340000FAE10C9491318C017B01FC01C081CC0F5D
:10341000CC0F24E0B22EBC0EAB2CF4E4FB1510F460
:1034200094E4A92E2091450531E0230F08F42FEFF5
:1034300030E050E040E06FEF7FEF80E090E00E94EE
:1034400064316901D0E02C2FCA1550F081E0F3E41B
:10345000FB1508F480E0CDB7DEB7EAE00C94AD319F
:10346000FE01ED52FE4F8081F8019181892311F117
:1034700040914D054150042E000C550B47FF1CC0D8
:10348000C6016091450521E0620F08F46FEF0E94CC
:103490006B15AC0160914205709143058091440524
:1034A000F70109950E940618462F282F672FCE0195
:1034B0000E9444182196C7CFFA01E35BFA4F818935
:1034C00082130AC0FA01EE0FFF1FE35BFA4F818DF2
:1034D000928D8C159D05A8F241505109CFCF6FE315
:1034E00077E10E94FD19089566E477E10E94FD19D5
:1034F0000895ABE0B0E0EFE7FAE10C9489318C83FA
:103500002B015F834E83FB01F081FF0FFF0FF983D7
:10351000FC5FFA83FB83F53410F024E42B833091B5
:103520004D053D839981892F90E09B878A87880F7D
:10353000991FFC01E55BFE4F6F01FC818F2F90E02E
:103540009C012F5F3F4F39872887EB81FA85FE1753
:1035500048F081E02A81243408F080E02B96E2E1F3
:103560000C94A531EA85FB85ED52FE4F8081F20176
:103570009181892301F120904205309043052885EF
:103580003985235B3A4F39013C81398310E0298129
:103590003D812317C8F020914405129F112D11245D
:1035A000B101812F0E940618462F282F672F8A8588
:1035B0009B850E9444188A859B8501969B878A87F4
:1035C00092E0C90ED11CC1CFF30181913F01F601F8
:1035D000A080A81ABB088180F3018781881A990806
:1035E000AA9C9001AB9C300D300D1124889CC00129
:1035F000899C900D900D1124820F931F0E947515C8
:10360000082F6091450521E0620F08F46FEFF30188
:10361000EE0FFF1FED54F540858996890E946B15CA
:103620007C019401A501B101812FEE81FF810995F3
:103630001B01F981FF5FF983182FA9CF20914D0558
:1036400031E0231B08F420E04CE457E1BC01822F59
:103650000E94791A0895B0E0A0E0E1E3FBE10C9448
:1036600092317C01FC01C081CC0FCC0F14E01C0F07
:10367000012F153408F004E4609142057091430570
:10368000809144050E940618D62EC72EB82ED0E091
:10369000C01748F081E0143408F080E0CDB7DEB701
:1036A000E9E00C94AE31FE01ED52FE4F8081F7014E
:1036B0009181892331F02B2D4D2D6C2DCE010E944F
:1036C00044182196E5CFB0E0A0E0E9E6FBE10C94D8
:1036D0008F317C01FC01C081CC0FCC0F14E01C0F9A
:1036E000012F153408F004E4C0904305D090440540
:1036F000D09142056D2F7C2D8D2D0E940618B62E7F
:10370000A72E982E609145056D0F7C2D8D2D0E9462
:103710000618D62EC72E882ED0E0C01748F081E0BC
:10372000143408F080E0CDB7DEB7ECE00C94AB3198
:10373000FE01ED52FE4F9081F7018181892359F0FE
:10374000282D4D2D6C2D90FD03C0292D4B2D6A2D5C
:10375000CE010E9444182196E0CFB0E0A0E0E3EB58
:10376000FBE10C9492318C01FC01C081CC0FCC0F99
:1037700054E0F52EFC0EDF2CF4E4FF1510F444E4C5
:10378000D42EC0904305B09044052091450530E407
:10379000E32E3E2D329F312D1124E32ED0E0CD15A6
:1037A00050F081E033E43F1508F480E0CDB7DEB798
:1037B000E9E00C94AE31FE01ED52FE4F8081F8013C
:1037C00091818923D9F0FE01EE0FFF1FE55BFE4FCB
:1037D0006081E69EB001112495E0759567959A95F4
:1037E000E1F780914205680F7C2D8B2D0E94061811
:1037F000462F282F672FCE010E9444182196CFCF45
:10380000B0E0A0E0E6E0FCE10C9492318C01FC0118
:10381000C081CC0FCC0F94E0F92EFC0EEF2CF4E419
:10382000FF1510F484E4E82ED0904205D0914305B2
:10383000C0904405609145056695669566958091B2
:10384000490590914A050E946B150E94BA1580584F
:1038500087FD8195880F282F3C2D239F212D112432
:10386000822F6D2D7D2F0E940618D62EC72EB82EC2
:10387000D0E0CE1550F081E023E42F1508F480E06D
:10388000CDB7DEB7E9E00C94AE31FE01ED52FE4F4C
:103890008081F8019181892331F02B2D4D2D6C2DE4
:1038A000CE010E9444182196E4CFB0E0A0E0EBE501
:1038B000FCE10C9494318C01FC01ED52FE4F8081AF
:1038C000682349F1D0904305D0914405C091420549
:1038D000EC2EF12C0E94A515282FC7018C549F4F68
:1038E00068E671E00E942E318E199F0997FD0396BC
:1038F000959587959595879523706C2F289F600DDA
:1039000011247D2D8D2F0E940618462F282F672FFA
:10391000C8010E944418CDB7DEB7E7E00C94B0317F
:10392000FF920F931F93CF93DF938C01FC01C08113
:10393000CC0FCC0F84E0F82EFC0E8281D0E08111F8
:103940002EC06091450520E1620F08F46FEF809171
:10395000490590914A050E946B156AE070E00E944B
:103960001A31892B61F40E94A515F4E48F9FC001E0
:103970001124F8016181892F90E00E94551C81E09B
:1039800023E42F1508F480E0CDB7DEB7E5E00C9412
:10399000B231F8016181CE010E94551C21968F2D14
:1039A000F4E4FF1508F484E48C171D0609F08CF785
:1039B000E6CF1F93CF93DF93EC01FC01ED52FE4F56
:1039C00080816823B1F00E94A515182F0E94A515CB
:1039D00020E8829FC00111247FE7790F612F809139
:1039E00044050E940618462F282F672FCE010E94FB
:1039F0004418DF91CF911F910895B0E0A0E0E3E07B
:103A0000FDE10C9494318C01FC01C281C11124C0F0
:103A10006091450520E1620F08F46FEF8091490540
:103A200090914A050E946B1565E070E00E941A3182
:103A3000892B61F40E94A515F4E48F9FC001112425
:103A4000F8016181892F90E00E94D91C8C2FCDB79D
:103A5000DEB7E7E00C94B031C081CC0FCC0F84E02E
:103A6000D82EDC0E8D2DF4E4FD1508F484E4D0E0AE
:103A7000E82EF12CCE15DF0534F0C1E0F3E4FD159E
:103A800028F7C0E0E3CFF8016181CE010E94D91C84
:103A90002196F0CFB0E0A0E0E0E5FDE10C9492319A
:103AA0007C01FC01C081CC0FCC0F14E01C0F012F56
:103AB000153408F004E4C0904305D0904405D0913B
:103AC0004205609145056695669566958091490524
:103AD00090914A050E946B150E94BA15805887FD87
:103AE0008195880F682F2CE0629F612D11246D0F46
:103AF0007C2D8D2D0E946715D62EC72EB82ED0E0B6
:103B0000C01748F081E0143408F080E0CDB7DEB78C
:103B1000E9E00C94AE31FE01ED52FE4F8081F701D9
:103B20009181892331F02B2D4D2D6C2DCE010E94DA
:103B300044182196E5CFE091C702F091C80209959B
:103B40000895CF92DF92FF920F931F93CF93DF934D
:103B5000CDB7DEB728970FB6F894DEBF0FBECDBF46
:103B6000182F062FF42E0E94FC0D882309F44CC058
:103B7000FF2009F457C0AE014F5F5F4F602F812FC8
:103B80000E941F18F82E0F2D10E08091A704800FBF
:103B9000912F911D09976CF188E090E06C01C01A9B
:103BA000D10AB80168557B4FA60188EA94E00E94CB
:103BB000D631B80160557B4FA60180EB94E00E949E
:103BC000D631A601440F551FB801660F771F605408
:103BD0007B4F80EC94E00E94D631B80168547B4F53
:103BE000A60188EB94E00E94D63188E08F1980937B
:103BF000A7041091A704DE01119640E0842F810FE5
:103C0000F41212C08093A70428960FB6F894DEBF72
:103C10000FBECDBFDF91CF911F910F91FF90DF902D
:103C2000CF900895F12CAFCF5D91252F30E090E03B
:103C3000BC0169557B4FF901EE0FFF1FE55BFE4F9D
:103C40000081FB010183220F331FF901E45BFE4F6A
:103C50002081FB012187518B880F991FFC01E955B9
:103C6000FB4F128E118E4F5FC9CFB0E0A0E0EBE3A7
:103C7000FEE10C948931782E80912502871124C0B1
:103C80009091410593702091260230E081E09217D7
:103C9000130609F480E08170809324028091460528
:103CA00090912302981739F08093230240E060E05E
:103CB00080E00E949B1D2DE1271588F0E72DF0E0A4
:103CC000E15CFD4C0C94833181E0E5CF80912402CE
:103CD000882359F040E060E080E00E949B1D80E076
:103CE00004C082E292E00E942B1B909122029F5F0F
:103CF0009093220281110CC082E080932102809176
:103D00002402811105C0711003C083E08093210259
:103D1000CDB7DEB7E2E10C94A53182E292E00E94D9
:103D2000631BE3CF82E292E00E94AD1BDECF82E212
:103D300092E00E94001CD9CF82E292E00E947619A4
:103D4000D4CF82E292E00E941A19CFCF82E292E0B1
:103D50000E94B618CACF82E292E00E947B19C5CFBA
:103D600082E292E00E948019C0CF82E292E00E943B
:103D70008519BBCF82E292E00E948A19B6CF82E217
:103D800092E00E94BB18B1CF82E292E00E941F191C
:103D9000ACCF82E292E00E942419A7CF82E292E0A7
:103DA0000E94C018A2CF82E292E00E94EE199DCF3D
:103DB00082E292E00E94F31998CF82E292E00E94A0
:103DC000F81993CF82E292E00E94901C8ECF82E29B
:103DD00092E00E94FD1C89CF82E292E00E944A1D7F
:103DE00084CF82E292E00E948F197FCF82E292E03C
:103DF0000E9494197ACFC0912202CF5FCC0FCC0FD2
:103E00004091490550914A0560914B0570914C05D0
:103E10008091A2049091A304A091A404B091A50460
:103E200084179507A607B70708F052C00E94A5158A
:103E300094E4899F80011124012F1127F801ED528C
:103E4000FE4F808190912302892309F441C00E9492
:103E5000A51520E040E060E081FD13C00E94A5159B
:103E6000D82F0E94A515E0E88E9FC00111247FE79E
:103E7000790F6D2F809144050E940618462F282F38
:103E8000672FC8010E9444182091450530E1230F97
:103E900008F42FEF60E1822F90E00E946B15BC01C7
:103EA00084EF91E00E941A318091490590914A0572
:103EB000A0914B05B0914C05860F971FA11DB11D18
:103EC0008093A2049093A304A093A404B093A504A8
:103ED00081E0C43408F409CF02CF40919E04509190
:103EE0009F046091A0047091A10480914905909174
:103EF0004A05A0914B05B0914C0584179507A6077C
:103F0000B70708F4ECCE80912402811148C0C0911B
:103F10002202CC0FCC0F44E0F42EFC0EEF2CF4E484
:103F2000FF1510F434E4E32E0C2F10E023E0C29FC1
:103F3000E0011124CE52DC4F0E1508F466C0F3E404
:103F400081E0FF1508F0D1CEE2EDF3E08BE994E0DB
:103F50008E179F0709F06BC00E94A51581FF6EC0E8
:103F600010929B0410929C0410929D040E942C17A6
:103F70000091490510914A0520914B0530914C055F
:103F8000DC01CB01800F911FA21FB31F80939E0401
:103F900090939F04A093A004B093A104A0CE40E00E
:103FA00060E080E00E949B1D02ED13E0D0E0C0E0E5
:103FB0000E94A51581FF0BC0F801108211821282A8
:103FC00021960D5F1F4FC434D10591F7A0CF0E94F9
:103FD000A515D82E0E94A515F0E88F9FC0011124C9
:103FE0007FE7790F7E01EE0CFF1CEC0EFD1EC70172
:103FF0008E529C4F7C016D2D809144050E94671567
:10400000F701608371838283DBCFF801ED52FE4FAD
:10401000808190912302892331F02A81488169812E
:10402000C8010E94441823960F5F1F4F85CF23813C
:10403000348145812193319341938ACF0E94A51504
:10404000C82F0E94A51520E8829FC00111247FE798
:10405000790F6C2F809144050E94671560939B0433
:1040600070939C0480939D0481CF809124028823C7
:1040700029F040E060E080E00E949B1D2090220239
:104080002394220C220C4091490550914A056091DD
:104090004B0570914C058091CE039091CF03A09178
:1040A000D003B091D10384179507A607B70708F08E
:1040B00073C06091420570914305809144050E9450
:1040C0000618662E572E482E0BEA13E0C0E0D1E00A
:1040D0009BE4892E91E0992E6E015E01780186E0C5
:1040E000382EF70121917F01F50181915F0190E068
:1040F000222309F457C0242D462D652D0E94441813
:10410000F6018685242D462D652D90E00E944418E9
:10411000F7018081319780833A94F1E0CF1AD1087A
:104120003110DFCF8E8190E0F8012681222309F43F
:1041300044C0242D462D652D0E9444188885242DC9
:10414000462D652D90E00E9444180E94A5158370AD
:1041500091E009F090E0F8019683095F1F4F2F96D8
:104160008C169D0609F0B8CF0E942C1700914905C6
:1041700010914A0520914B0530914C05DC01CB0193
:10418000800F911FA21FB31F8093CE039093CF0384
:10419000A093D003B093D10381E0F3E4F21508F0CB
:1041A000A4CD9DCD20E040E060E00E944418F601DF
:1041B000868520E040E060E0A8CF20E040E060E0BD
:1041C0000E944418888520E040E060E0BBCF82E296
:1041D00092E00E946F1A89CD82E292E00E94741AE6
:1041E00084CD82E292E00E941E1B7FCD81E0089583
:1041F00081E008950E94F8200895FC018081815C8F
:10420000880F880F64E0680F653408F064E40E944A
:10421000FA2008954F925F926F927F928F929F92B1
:10422000AF92BF92CF92DF92EF92FF92CF936091C5
:10423000D0047091D1048091D2049091D3040E9453
:10424000172A6B017C010E94FC294B015C018092C2
:10425000D0049092D104A092D204B092D304A09141
:10426000A704E7EAF4E08A2F90E04FEF5FEF60E009
:1042700070E04C195D096E097F09A9132AC080936B
:10428000A7048091D404C0E0811108C08091410549
:10429000C82FC37019F0C82FC695C695809121020A
:1042A000813009F440C0882339F1823009F447C0D5
:1042B000833009F44FC0CF91FF90EF90DF90CF9003
:1042C000BF90AF909F908F907F906F905F904F9036
:1042D0000895218D328D2901712C612C44155505CD
:1042E0006605770520F481509F5F3296C6CF2C0D6E
:1042F0003D1D328F218FF8CF109222028092490506
:1043000090924A05A0924B05B0924C0589E2E7EAEB
:10431000F4E0ADE4B5E001900D928A95E1F781E01B
:1043200080932102C8CF8C2F0E94351ECC2319F216
:104330000E94E30282E292E00E94FD20BCCFC09383
:104340002502809141058370809326020E943E18C9
:1043500083E0E6CF8091A60481110E94FB17609153
:10436000490570914A0580914B0590914C050E943A
:10437000172A6A3171058105910508F49CCF1092C6
:10438000210299CFE091C302F091C40209951092E5
:104390004D058FEF9FEF909367058093660590938F
:1043A00069058093680590936B0580936A059093E7
:1043B0006D0580936C0590936F0580936E059093C7
:1043C00071058093700590937305809372059093A7
:1043D0007505809374051092A7049093C10480938F
:1043E000C0049093C3048093C2049093C504809347
:1043F000C4049093C7048093C6049093C904809327
:10440000C8049093CB048093CA049093CD04809306
:10441000CC049093CF048093CE040E940A0D8111A6
:1044200004C00E94A80D0E94091881E08093A60490
:1044300048E050E068E170E081E495E00E94DF31FF
:104440001092A604809141058C7F11F40E940918F6
:104450000895CF93C82F882391F08091D4048111BF
:104460000EC00E94351E1092250280914105837076
:10447000809326020E943E1883E080932102C0931D
:10448000D404CF910895E1E4F5E0908121E09227F2
:104490009083109221020E946217089581E00E9489
:1044A0004322089590914105937051F0811109C004
:1044B00094609093410510922102862F0E9462170A
:1044C00008958E3110F09467F4CF282F220F220F19
:1044D000922BEFCF61E00E9452220895682F9091B5
:1044E00041059695969581E0890F8E3108F081E01F
:1044F0000E945222089581E00E946E220895682F42
:1045000090914105969596958FEF890F09F48DE16D
:104510000E945222089581E00E947F220895909186
:104520004105937061F08093420560934305493CD7
:1045300008F048EC40934405822F0E9462170895CA
:10454000A1E4B5E01196EC911197F0E0282F1396B5
:104550004C91139712966C91CF0108960E948F226E
:10456000089581E00E94A0220895E1E4F5E09181A0
:10457000282F43816281E92FE850FF0BCF010E9471
:104580008F22089581E00E94B5220895E1E4F5E0CC
:10459000628120E1620F08F46FEF9181282F43813F
:1045A000892F90E00E948F22089581E00E94C62208
:1045B0000895E1E4F5E0628120E1621B08F460E027
:1045C0009181282F4381892F90E00E948F220895A6
:1045D00081E00E94D9220895E1E4F5E0438120E1E1
:1045E000420F08F44FEF9181282F6281892F90E0CC
:1045F0000E948F22089581E00E94EC220895E1E458
:10460000F5E0438120E1421B08F440E09181282F2E
:104610006281892F90E00E948F22089581E00E949C
:10462000FF220895E1E4F5E0248130E1230F08F44E
:104630002FEF24830E946217089581E00E941223C5
:104640000895E1E4F5E0248130E1231B08F420E043
:1046500024830E946217089581E00E942123089517
:1046600060E084E70E94E52461E087E70E94E5249A
:104670000895CF930E94312784E70E94872387E71C
:104680000E948723C0E021E041E061E08C2F0E947E
:104690002F24CF5FC434B9F760E084E70E94FA2486
:1046A00061E087E70E94FA24CF910895E6E9F6E0F9
:1046B0006083418324E630E042E050E0BF01880F90
:1046C0000E94D12708950F931F93CF93DF93082F54
:1046D000000FEB0114E21093960680E1FE01A7E9BA
:1046E000B6E001900D928A95E1F724E630E041E1D1
:1046F00050E066E976E0802F0E94D127105F609637
:10470000143B49F7DF91CF911F910F910895CF93FB
:10471000DF93C82F4BE06DEF0E94562340E06AE024
:104720008C2F0E9456238FE39CE90197F1F700C07C
:10473000000040E060E08C2F0E94562340E061E0E2
:104740008C2F0E94562340E066E08C2F0E94562357
:1047500040E06DEF8C2F0E945623D0E040E06D2F9B
:104760008C2F0E945623DF5FD231C1F740E06D2FBE
:104770008C2F0E945623DF5FD432C1F740E06D2FAB
:104780008C2F0E945623DF5FD43BC1F74BE06DEFC7
:104790008C2F0E94562341E06AE08C2F0E94562302
:1047A00040E06DEF8C2F0E945623DF91CF9108954A
:1047B000A4E0B0E0EEEDF3E20C949631F62E042F77
:1047C000122F8434910570F5880F991F880F991F57
:1047D000BC0164557F4F44E050E0CE0101960E9439
:1047E000C03189818370EA81282F30E040E9849FBD
:1047F000C00111248A589A4FE80FF92FF11DB49780
:10480000F082EB81E80FF92FF11DB4970083EC8162
:10481000E80FF92FF11DB497108325503B4F81E02D
:10482000F90180832496E5E00C94B231FF920F9356
:104830001F93CF93DF93182F062FF42ED0E0C0E004
:104840002F2D402F612FCE010E94D8232196C434F2
:10485000D105B1F7CDB7DEB7E5E00C94B231A4E0F5
:10486000B0E0E5E3F4E20C948E31762EA42EB22E65
:1048700024E0829FB001112464557F4F44E050E052
:10488000CE0101960E94C0318A8190E06C0154E211
:10489000C51AD1089601D7FE02C0295F3F4F63E0D9
:1048A000359527956A95E1F74B8150E0CA018497C9
:1048B0007C0197FF04C07A016DE1E61AF10853E02C
:1048C000F594E7945A95E1F74C8150E04A01E4E20F
:1048D0008E1A9108840197FE02C0095F1F4F43E0C2
:1048E000159507954A95E1F7E8E0F0E0BF010E94D1
:1048F0002E31482FC401BF010E942E31982EC601CF
:10490000BF010E942E3161E070E0FB0102C0EE0F9A
:10491000FF1F8A95E2F7CF01E98133279E2F93701D
:10492000772009F440C0F2E19F9F200D311D112432
:10493000D901A952BB4F9C91892B8C93E3708E2F88
:1049400090E062E1E69FF0011124E952FB4FEE0D89
:10495000F11D508121E030E001C0220F4A95EAF7B5
:10496000AA2069F1252B208322E1289FF001299FAD
:10497000F00D1124E952FB4FE00FF11D408121E0C1
:1049800030E0092C01C0220F0A94EAF7BB20D1F0D5
:10499000242B20838B529B4F21E0FC012083249603
:1049A000EDE00C94AA3152E1959F200D311D1124A8
:1049B000D901A952BB4F80959C918923BECF2095E8
:1049C0002523D1CF20952423E4CFCF93DF93C62F87
:1049D000D0E0C550DB4F9881992341F090E9699F61
:1049E000B00111246A587A4F0E9463231882DF9124
:1049F000CF910895EF92FF920F931F93CF93DF9380
:104A0000E82E062F10E00B521B4FF80180818823FF
:104A100081F0F2E16F9FE0011124C952DB4FF12CCC
:104A200049916F2D8E2D0E945623F39482E1F81246
:104A3000F7CFF8011082CDB7DEB7E6E00C94B131C4
:104A4000FA01811101C0FB01099508951F93CF93CD
:104A5000DF93EC01FB011581111110C00E94090CBC
:104A60008272FE01E052F847E531F10508F049C0D5
:104A7000E35AFD4C0C9483310E944E22812FDF912A
:104A8000CF911F9108954BE852E26BE772E20E94CA
:104A90002025F4CF4BE752E26BE872E2F8CF42EC0C
:104AA00052E261EB72E2F3CF41EB52E262EC72E26E
:104AB000EECF48EE52E265ED72E2E9CF45ED52E20B
:104AC00068EE72E2E4CF4EE053E26BEF72E2DFCFCA
:104AD0004BEF52E26EE073E2DACF4CE253E26DE16B
:104AE00073E2D5CF4DE153E26CE273E2D0CF81E0C7
:104AF0000E946A22C3CF84E0FBCF89E0F9CF8EE029
:104B0000F7CF11E0BBCFCF93DF93EC01FB018581A1
:104B1000882309F4D2C09E0130572332310508F0B2
:104B2000B2C00E941F0D90932C0580932B05FE01AF
:104B3000E150F047E232F10520F4EE58FD4C0C94C0
:104B4000833180912B05816080932B0593C08091E8
:104B50002C05886080932C058DC080912B05826088
:104B6000F3CF80912B058460EFCF80912B05886077
:104B7000EBCF80912C058160EDCF80912C05826078
:104B8000E9CF80912B058061DFCF80912B0580627A
:104B9000DBCF80912B058064D7CF0E947607809170
:104BA0002B058068D1CF80912B058C60CDCF809173
:104BB0002C058360CFCF80912B058E7FC5CF809150
:104BC0002C05877FC7CF80912B058D7FBDCF80912E
:104BD0002B058B7FB9CF80912B05877FB5CF809137
:104BE0002C058E7FB7CF80912C058D7FB3CF809120
:104BF0002B058F7EA9CF80912B058F7DA5CF80912E
:104C00002B058F7BA1CF0E94760780912B058F7794
:104C10009BCF80912B05837F97CF80912C058C7F34
:104C200099CF80912B0582FB992790F921E092275B
:104C300090FB82F990FB83F987CF80912C05982F08
:104C4000909591708E7F892B90FB81F983CF909105
:104C50002B05892F8F7B96FF806476CF0E94760785
:104C600090912B05892F97FB87F980586DCF81E0B4
:104C70000E94AB0D80912B0590912C050E94240D74
:104C80000E94760780E0DF91CF91089580E0F0CF19
:104C900090912B05892F8F7E94FF806155CF909145
:104CA0002B05892F8E7F90FF81604ECF90912C0530
:104CB000892F877F93FF88604DCF81E0E4CFCF932A
:104CC000DF93EB0186319C4711F50E94090C9D8111
:104CD000992399F08A7A91E009F490E09093FD0489
:104CE000811109C089E20E94E10B0E94620C80E000
:104CF000DF91CF91089585E3F6CF8091FD04811176
:104D000004C089E20E94E90BF0CF85E3FBCF81E08C
:104D1000EFCF0F931F93CF93DF93C42FD22FFC01BC
:104D200085818823C9F0409300050E94F029909363
:104D3000FF048093FE0480E28C0F883040F4C7703B
:104D400081E001C0880FCA95EAF70E942205DF9131
:104D5000CF911F910F91089510910005141332C047
:104D60008091FE049091FF040E94082A883C9105DE
:104D700048F5C0E2CD0F1D17B9F080E2810F8830F1
:104D800040F4177081E001C0880F1A95EAF70E947D
:104D90002905C83048F481E09D2F977001C0880F25
:104DA0009A95EAF70E942205802F0E941905C830C3
:104DB00070F6D77081E001C0880FDA95EAF70E949B
:104DC0002905C5CF80E28C0F883008F6C77081E0D6
:104DD00001C0880FCA95EAF7F2CF0F93DB01885123
:104DE0009C4787309105A0F5FC01EC56FD4C0C94D6
:104DF000833106E221EE41EE6AE17CE7CD010E94BB
:104E0000892680E00F91089507E225EE45EE6BE1DB
:104E10007CE7F4CF06E221EE40EE68E17CE7EECFDE
:104E200007E225EE44EE69E17CE7E8CF06E221EEF9
:104E300042EE6CE17CE7E2CF07E225EE46EE6DE163
:104E40007CE7DCCF08E221E045EE6EE17CE7D6CFDF
:104E500015968C91882319F010920005D3CF81E02C
:104E6000D1CF1092B9008CE08093B8000895B0E0E3
:104E7000A0E0EDE3F7E20C949031B82EEB010E9434
:104E8000F0296C01EE24E394F12CC431D10560F0DB
:104E900025E0E22EF12CCF3FDC0731F0CE0164E1BA
:104EA00070E00E941A317B0184EAA82E94E8992EC2
:104EB0001092BC00A092BC000E94F0298C0180914D
:104EC000BC0087FF0DC08091B900887F8830F9F061
:104ED0008091B900887F8031D1F00FEF1FEF08C0BB
:104EE000C8010E94082AE816F90648F70EEF1FEFDE
:104EF000CF3FDC07E9F2C6010E94082AC817D9078C
:104F0000B8F6C801CDB7DEB7EBE00C94AC31B09287
:104F1000BB009092BC000E94F0298C018091BC00E3
:104F200087FF0AC08091B900887F883111F08034F2
:104F3000A1F610E000E0E5CFC8010E94082AE816BB
:104F4000F90660F7D3CF0F931F93CF93DF93EB0155
:104F50008093BB0084E88093BC000E94F0298C0100
:104F60008091BC0087FF11C02091B900287F81E0AB
:104F700090E0283211F490E080E0919581959109BC
:104F8000DF91CF911F910F910895CF3FDC0741F33F
:104F9000C8010E94082AC817D90710F78EEF9FEFA3
:104FA000EFCFB0E0A0E0E7EDF7E20C9493316B01B6
:104FB0008A017901B9010E943727E6010C0D1D1DF8
:104FC000C017D10711F097FF08C024E92093BC0057
:104FD000CDB7DEB7E8E00C94AF31B70189910E94FC
:104FE000A327EECF9093CD028093CC0208959093A7
:104FF0000605809305050895E0910505F0910605E5
:10500000309729F00190F081E02D0995089580E016
:1050100008950E94FC270895E0910505F09106058A
:10502000309799F020913102222359F020912B05DD
:1050300027FF07C0DC012C9111962C93119726E0D5
:105040002C930280F381E02D09950895E0910505E8
:10505000F0910605309739F022E0DC012C930480B2
:10506000F581E02D09950895A3E0B0E0EAE3F8E2C8
:105070000C949931209103053091040528173907C4
:10508000A1F09093040580930305E0910505F0914C
:105090000605309751F023E029839B838A8306809D
:1050A000F781E02DCE01019609952396E2E00C945C
:1050B000B531A3E0B0E0EFE5F8E20C94993120912E
:1050C00001053091020528173907A1F090930205D8
:1050D00080930105E0910505F0910605309751F0A8
:1050E00024E029839B838A830680F781E02DCE010B
:1050F000019609952396E2E00C94B531FC013296B5
:1051000080913102882321F080912B059EE187FF59
:1051100096E080E0915008F4089521912223D1F384
:105120008F5FF8CF662301F1209131022223F1F045
:1051300020912B0527FF1AC0462F46954695469588
:105140004E3190F4677021E030E002C0220F331F2F
:105150006A95E2F7840F911DFC01828190E028237B
:10516000392381E0232B69F480E00895FC01329615
:1051700008962191261721F0E817F907D1F7F4CF07
:1051800081E008959C01FC0132969FEF80E04191FF
:10519000461751F09F3F19F4411101C0982F8F5FBE
:1051A0008630A9F79F3F09F40895290F311D97FD17
:1051B0003A95F90162830895FC013296089621918F
:1051C000261303C0DF0111971C92E817F907B9F7FE
:1051D0000895E62FE695E695E695EE3168F4E80F3A
:1051E000F92FF11D677021E030E001C0220F6A95B0
:1051F000EAF78281822B82830895E62FE695E69571
:10520000E695EE3170F4E80FF92FF11D677021E09B
:1052100030E001C0220F6A95EAF7209582812823A9
:105220002283089520913102222339F020912B0509
:1052300027FF03C00E94E92808950E94C22808950C
:1052400020913102222339F020912B0527FF03C042
:105250000E94FD2808950E94DC280895FC013296E2
:1052600080913102882351F080912B0587FF06C081
:105270008EE1DF011D928A95E9F7089586E0F9CF66
:1052800046E050E00E94C93121E0892B09F420E07A
:10529000822F089508950E944A290895811106C019
:1052A00081E0809307050E944B29089582E0F9CFA1
:1052B00083E0809307050E944B2908950E944E29A0
:1052C000089581E0809307050E944B2908950E946C
:1052D00061290895089508950E946B2908950895FD
:1052E00008950E946A290895CF930E946F290E9411
:1052F000BA110E947029C0E08C2F0E94EB10892BFC
:1053000031F4CF5FC530C1F780E0CF91089581E0DF
:10531000FCCF85B7806885BF85B7806885BF089555
:105320001F921FB61F9211248F939F93AF93BF9329
:1053300080910805811113C08091AA069091AB0657
:10534000A091AC06B091AD064196A11DB11D809310
:10535000AA069093AB06A093AC06B093AD06BF919E
:10536000AF919F918F911F901FBE1F9018958091B4
:10537000B206843031F10E94ED031092080588E1F5
:1053800090E020E40FB6F894A895809360000FBEDB
:105390002093600083B7817F846083BF83B781607F
:1053A00083BF7894889583B78E7F83BF0FB6F894B8
:1053B000A8958091600088618093600010926000E1
:1053C0000FBE08950E9476070E94F703089582E0B9
:1053D00084BD93E095BD9AEF97BD80936E000895CC
:1053E0002FB7F8948091AA069091AB06A091AC06D5
:1053F000B091AD062FBF08952FB7F8946091AA061B
:105400007091AB068091AC069091AD062FBF0895C8
:105410009C014FB7F8948091AA069091AB06A09199
:10542000AC06B091AD064FBF821B930B0895CF928F
:10543000DF92EF92FF922FB7F894C090AA06D09017
:10544000AB06E090AC06F090AD062FBFA701960129
:10545000261B370B480B590BCA01B901FF90EF907F
:10546000DF90CF90089578941F921FB61F92112459
:105470008F939F93AF93BF938091AA069091AB06B1
:10548000A091AC06B091AD060196A11DB11D80930F
:10549000AA069093AB06A093AC06B093AD06BF915D
:1054A000AF919F918F911F901FBE1F90189581E023
:1054B0008093E00080E28093D8001092C9008FE1D1
:1054C0009EE40197F1F700C0000087E090EBDC015B
:1054D0008093BB069093BC06A093BD06B093BE0616
:1054E00088E19CE00FB6F894A895809360000FBE09
:1054F00090936000FFCF88E19CE00FB6F894A895E8
:10550000809360000FBE90936000FFCF80912905CB
:1055100008959B01BA019091B2069430E9F48F701E
:105520008093E9009FEF8091E800915085FD06C0CF
:1055300085ED8A95F1F700009111F5CF8091E80093
:1055400085FF0AC050E040E0C9010E94932C809181
:10555000E8008E778093E800089543E050E0BC01B6
:1055600082E00E94892A089546E050E0BC0182E072
:105570000E94892A0895CF93DF93EC018091310234
:10558000811111C048E050E0BE0181E00E94892AEB
:1055900080E2FE01A9E0B5E001900D928A95E1F765
:1055A000DF91CF91089580912B0587FF05C040E2E0
:1055B00082E050E0BE01EACF48E081E0FACF80917E
:1055C000B106811109C00E94232E0E94802E809175
:1055D000E20084608093E20008951092B10608957D
:1055E0000E94612908956091AE0681E0611101C0B9
:1055F00080E00E94582908959091B20681E094308D
:1056000009F080E06091AE060E945E29089542E0B4
:1056100061EC81E00E949F2D42E261EC82E00E94F9
:105620009F2D9091B20681E0943009F080E0609166
:10563000AE060E944E2908958091B406833009F485
:1056400061C030F48130D1F1823009F49EC00895F8
:105650008A3009F48AC08B3009F46FC0893009F0B0
:1056600050C08091B306813209F04BC08091B706DB
:105670009091B806029708F044C08091E800877FB7
:105680008093E8008091E80082FF37C09091F3009A
:105690008091F200029731F48091F100813011F095
:1056A000863021F48091F100809329058091E800F3
:1056B0008B778093E8000E94D32D23C08091B3069E
:1056C000813AF9F48091E800877F8093E800809127
:1056D000B7069091B806892B61F460E289E095E005
:1056E00070E00E94E22C8091E8008B778093E800C4
:1056F000089560E090E080E0F3CF8091B2068111E0
:10570000C1CF08958091B306813AD9F78091B70649
:105710009091B806892BA9F78091E800877F809344
:10572000E8008091E80080FFFCCF809131028093F7
:10573000F1008091E8008E77BCCF8091B306813272
:1057400001F78091B7069091B806892BD1F6809128
:10575000E800877F8093E8000E94D32D8091B506F2
:10576000809331020E94760708958091B3068132BA
:1057700041F68091E800877F8093E8000E94D32D56
:105780008091B60680932A0508958091B306813AE8
:1057900009F0B7CF8091E800877F8093E80080917F
:1057A000E80080FFFCCF80912A05C1CF84B7877FB6
:1057B00084BF0FB6F894A8958091600088618093AB
:1057C0006000109260000FBE80E890E00FB6F89481
:1057D00080936100909361000FBE0E946729089535
:1057E0000E94232E0E94802EE2EEF0E080818460F1
:1057F000808378940E94FF30089589E292E00E94AD
:10580000F72708958091B206853031F48091B20671
:10581000853019F00E94E22908950E94B7298091ED
:10582000B006882399F30E947429882379F30E9493
:105830007D2C0E947607EACF08959A014091B9061F
:105840005091BA060E94252C0895492F55274330C0
:10585000510519F168F44130510509F444C0423052
:10586000510509F445C090E080E050E040E025C0DB
:105870004132510549F142325105A9F780E490E0E7
:1058800041E155E061157105C1F086EB90E04BE513
:1058900054E06130710589F0E6CF99278130910598
:1058A00081F0009729F00297F1F6E8EEF3E002C0EC
:1058B000EAE0F4E0849190E0AF01F9015183408384
:1058C0000895EAEFF3E0F6CF89E090E040E254E09B
:1058D0006115710591F389E090E049E354E061308E
:1058E000710559F3C0CF82E190E049E454E0E5CF7F
:1058F0008BE390E04EE054E0E0CF80E189BD82E1AF
:1059000089BD09B400FEFDCF8091D8008F7D8093C2
:10591000D8008091E00082608093E0008091E000F8
:1059200081FDFCCF0895AF92BF92CF92DF92FF929C
:105930000F931F93CF93DF936C01EB018A010E94B9
:10594000F22DF82E811123C00115110539F0F8014F
:1059500080819181C81BD90BC80ED91EB12CA12CF6
:105960002097A9F08091E80085FD22C08091E80091
:105970008E778093E80001151105A1F0F801808170
:105980009181A80EB91EB182A08285E0F82E8F2DDC
:10599000DF91CF911F910F91FF90DF90CF90BF903B
:1059A000AF9008950E94F22D8823D1F2F82EEFCF08
:1059B000F60181916F018093F1002197FFEFAF1AFB
:1059C000BF0ACECFFC018091B9069091BA06861726
:1059D0009707A0F06115710529F49091E8009E7772
:1059E0009093E80090E06115710551F4911108C0A1
:1059F0008091E80082FF34C080E00895BC01F2CFBE
:105A00008091B2068823C1F18530C1F18091E80010
:105A100083FD30C08091E80082FDEACF8091E800EC
:105A200080FFE1CF8091F3002091F200382F6115C3
:105A3000710519F02830310558F091E02830310512
:105A400009F090E02091E8002E772093E800CBCF7A
:105A500081918093F100615071092F5F3F4FE7CF33
:105A60008091B206882341F0853041F08091E800B2
:105A700083FFBECF81E0089582E0089583E008951A
:105A8000FC018091B9069091BA0686179707A0F09D
:105A90006115710529F48091E8008E778093E80004
:105AA00090E06115710551F4911108C08091E800F2
:105AB00082FF35C080E00895BC01F2CF8091B2062C
:105AC0008823C9F18530C9F18091E80083FD31C098
:105AD0008091E80082FDEACF8091E80080FFE1CF6D
